{
  "contractName": "ChainList",
  "abi": [
    {
      "constant": true,
      "inputs": [
        {
          "name": "",
          "type": "uint256"
        }
      ],
      "name": "articles",
      "outputs": [
        {
          "name": "id",
          "type": "uint256"
        },
        {
          "name": "seller",
          "type": "address"
        },
        {
          "name": "buyer",
          "type": "address"
        },
        {
          "name": "name",
          "type": "string"
        },
        {
          "name": "description",
          "type": "string"
        },
        {
          "name": "price",
          "type": "uint256"
        }
      ],
      "payable": false,
      "stateMutability": "view",
      "type": "function",
      "signature": "0xedcfafe6"
    },
    {
      "anonymous": false,
      "inputs": [
        {
          "indexed": false,
          "name": "_articleCounter",
          "type": "uint256"
        },
        {
          "indexed": true,
          "name": "_seller",
          "type": "address"
        },
        {
          "indexed": false,
          "name": "_name",
          "type": "string"
        },
        {
          "indexed": false,
          "name": "_price",
          "type": "uint256"
        }
      ],
      "name": "LogSellArticle",
      "type": "event",
      "signature": "0xe2ebb0c522a8b90a93f45a5dfd3c0e0516b81519fdf199efe51c474642fe8cec"
    },
    {
      "anonymous": false,
      "inputs": [
        {
          "indexed": false,
          "name": "_id",
          "type": "uint256"
        },
        {
          "indexed": true,
          "name": "_seller",
          "type": "address"
        },
        {
          "indexed": true,
          "name": "_buyer",
          "type": "address"
        },
        {
          "indexed": false,
          "name": "_name",
          "type": "string"
        },
        {
          "indexed": false,
          "name": "_price",
          "type": "uint256"
        }
      ],
      "name": "LogBuyArticle",
      "type": "event",
      "signature": "0x5d28bc06e6f0c45405abfe77bd77236c767f9bd9d044ae2d954a415a2b4823e0"
    },
    {
      "constant": false,
      "inputs": [
        {
          "name": "_name",
          "type": "string"
        },
        {
          "name": "_description",
          "type": "string"
        },
        {
          "name": "_price",
          "type": "uint256"
        }
      ],
      "name": "sellArticle",
      "outputs": [],
      "payable": false,
      "stateMutability": "nonpayable",
      "type": "function",
      "signature": "0xd2609515"
    },
    {
      "constant": true,
      "inputs": [],
      "name": "getNumberOfArticles",
      "outputs": [
        {
          "name": "_id",
          "type": "uint256"
        }
      ],
      "payable": false,
      "stateMutability": "view",
      "type": "function",
      "signature": "0x89da85d3"
    },
    {
      "constant": true,
      "inputs": [],
      "name": "getArticlesForSale",
      "outputs": [
        {
          "name": "",
          "type": "uint256[]"
        }
      ],
      "payable": false,
      "stateMutability": "view",
      "type": "function",
      "signature": "0x7f6be3da"
    },
    {
      "constant": false,
      "inputs": [
        {
          "name": "_id",
          "type": "uint256"
        }
      ],
      "name": "buyArticle",
      "outputs": [],
      "payable": true,
      "stateMutability": "payable",
      "type": "function",
      "signature": "0x1cc4baa8"
    }
  ],
  "bytecode": "0x608060405234801561001057600080fd5b50610d7f806100206000396000f3fe60806040526004361061006d576000357c0100000000000000000000000000000000000000000000000000000000900463ffffffff1680631cc4baa8146100725780637f6be3da146100a057806389da85d31461010c578063d260951514610137578063edcfafe6146102a0575b600080fd5b61009e6004803603602081101561008857600080fd5b8101908080359060200190929190505050610434565b005b3480156100ac57600080fd5b506100b561073e565b6040518080602001828103825283818151815260200191508051906020019060200280838360005b838110156100f85780820151818401526020810190506100dd565b505050509050019250505060405180910390f35b34801561011857600080fd5b506101216108cc565b6040518082815260200191505060405180910390f35b34801561014357600080fd5b5061029e6004803603606081101561015a57600080fd5b810190808035906020019064010000000081111561017757600080fd5b82018360208201111561018957600080fd5b803590602001918460018302840111640100000000831117156101ab57600080fd5b91908080601f016020809104026020016040519081016040528093929190818152602001838380828437600081840152601f19601f8201169050808301925050505050505091929192908035906020019064010000000081111561020e57600080fd5b82018360208201111561022057600080fd5b8035906020019184600183028401116401000000008311171561024257600080fd5b91908080601f016020809104026020016040519081016040528093929190818152602001838380828437600081840152601f19601f820116905080830192505050505050509192919290803590602001909291905050506108d6565b005b3480156102ac57600080fd5b506102d9600480360360208110156102c357600080fd5b8101908080359060200190929190505050610b02565b604051808781526020018673ffffffffffffffffffffffffffffffffffffffff1673ffffffffffffffffffffffffffffffffffffffff1681526020018573ffffffffffffffffffffffffffffffffffffffff1673ffffffffffffffffffffffffffffffffffffffff1681526020018060200180602001848152602001838103835286818151815260200191508051906020019080838360005b8381101561038d578082015181840152602081019050610372565b50505050905090810190601f1680156103ba5780820380516001836020036101000a031916815260200191505b50838103825285818151815260200191508051906020019080838360005b838110156103f35780820151818401526020810190506103d8565b50505050905090810190601f1680156104205780820380516001836020036101000a031916815260200191505b509850505050505050505060405180910390f35b600060015411151561044557600080fd5b60008111801561045757506001548111155b151561046257600080fd5b60008060008381526020019081526020016000209050600073ffffffffffffffffffffffffffffffffffffffff168160020160009054906101000a900473ffffffffffffffffffffffffffffffffffffffff1673ffffffffffffffffffffffffffffffffffffffff161415156104d757600080fd5b8060010160009054906101000a900473ffffffffffffffffffffffffffffffffffffffff1673ffffffffffffffffffffffffffffffffffffffff163373ffffffffffffffffffffffffffffffffffffffff161415151561053657600080fd5b80600501543414151561054857600080fd5b338160020160006101000a81548173ffffffffffffffffffffffffffffffffffffffff021916908373ffffffffffffffffffffffffffffffffffffffff160217905550600260009054906101000a900473ffffffffffffffffffffffffffffffffffffffff1673ffffffffffffffffffffffffffffffffffffffff166108fc349081150290604051600060405180830381858888f193505050501580156105f3573d6000803e3d6000fd5b508060020160009054906101000a900473ffffffffffffffffffffffffffffffffffffffff1673ffffffffffffffffffffffffffffffffffffffff168160010160009054906101000a900473ffffffffffffffffffffffffffffffffffffffff1673ffffffffffffffffffffffffffffffffffffffff167f5d28bc06e6f0c45405abfe77bd77236c767f9bd9d044ae2d954a415a2b4823e084846003018560050154604051808481526020018060200183815260200182810382528481815460018160011615610100020316600290048152602001915080546001816001161561010002031660029004801561072a5780601f106106ff5761010080835404028352916020019161072a565b820191906000526020600020905b81548152906001019060200180831161070d57829003601f168201915b505094505050505060405180910390a35050565b6060806001546040519080825280602002602001820160405280156107725781602001602082028038833980820191505090505b50905060008090506000600190505b6001548111151561083e57600073ffffffffffffffffffffffffffffffffffffffff1660008083815260200190815260200160002060020160009054906101000a900473ffffffffffffffffffffffffffffffffffffffff1673ffffffffffffffffffffffffffffffffffffffff1614156108315760008082815260200190815260200160002060000154838381518110151561081a57fe5b906020019060200201818152505081806001019250505b8080600101915050610781565b60608260405190808252806020026020018201604052801561086f5781602001602082028038833980820191505090505b50905060008090505b838110156108c157848181518110151561088e57fe5b9060200190602002015182828151811015156108a657fe5b90602001906020020181815250508080600101915050610878565b508094505050505090565b6000600154905090565b60016000815480929190600101919050555060c06040519081016040528060015481526020013373ffffffffffffffffffffffffffffffffffffffff168152602001600073ffffffffffffffffffffffffffffffffffffffff1681526020018481526020018381526020018281525060008060015481526020019081526020016000206000820151816000015560208201518160010160006101000a81548173ffffffffffffffffffffffffffffffffffffffff021916908373ffffffffffffffffffffffffffffffffffffffff16021790555060408201518160020160006101000a81548173ffffffffffffffffffffffffffffffffffffffff021916908373ffffffffffffffffffffffffffffffffffffffff1602179055506060820151816003019080519060200190610a0d929190610cae565b506080820151816004019080519060200190610a2a929190610cae565b5060a082015181600501559050503373ffffffffffffffffffffffffffffffffffffffff167fe2ebb0c522a8b90a93f45a5dfd3c0e0516b81519fdf199efe51c474642fe8cec60015485846040518084815260200180602001838152602001828103825284818151815260200191508051906020019080838360005b83811015610ac1578082015181840152602081019050610aa6565b50505050905090810190601f168015610aee5780820380516001836020036101000a031916815260200191505b5094505050505060405180910390a2505050565b60006020528060005260406000206000915090508060000154908060010160009054906101000a900473ffffffffffffffffffffffffffffffffffffffff16908060020160009054906101000a900473ffffffffffffffffffffffffffffffffffffffff1690806003018054600181600116156101000203166002900480601f016020809104026020016040519081016040528092919081815260200182805460018160011615610100020316600290048015610c005780601f10610bd557610100808354040283529160200191610c00565b820191906000526020600020905b815481529060010190602001808311610be357829003601f168201915b505050505090806004018054600181600116156101000203166002900480601f016020809104026020016040519081016040528092919081815260200182805460018160011615610100020316600290048015610c9e5780601f10610c7357610100808354040283529160200191610c9e565b820191906000526020600020905b815481529060010190602001808311610c8157829003601f168201915b5050505050908060050154905086565b828054600181600116156101000203166002900490600052602060002090601f016020900481019282601f10610cef57805160ff1916838001178555610d1d565b82800160010185558215610d1d579182015b82811115610d1c578251825591602001919060010190610d01565b5b509050610d2a9190610d2e565b5090565b610d5091905b80821115610d4c576000816000905550600101610d34565b5090565b9056fea165627a7a72305820604044216e01a7297ccfae682aeddd6964bc48a6a060bfdb27ad91d4aa13f3d00029",
  "source": "pragma solidity >=0.4.21 <0.6.0;\n\ncontract ChainList {\n  //custom types\n  struct Article {\n    uint id;\n    address payable seller;\n    address buyer;\n    string name;\n    string description;\n    uint256 price;\n  }\n\n  mapping (uint => Article) public articles;\n  uint articleCounter;\n\n  // state variables\n  address payable seller;\n  address buyer;\n  string name;\n  string description;\n  uint256 price;\n\n  // events\n  event LogSellArticle(\n    uint _articleCounter,\n    address indexed _seller,\n    string _name,\n    uint256 _price\n  );\n\n  event LogBuyArticle(\n    uint _id,\n    address indexed _seller,\n    address indexed _buyer,\n    string _name,\n    uint256 _price\n  );\n\n  // sell an article\n  function sellArticle(string memory _name, string memory _description, uint256 _price) public {\n    articleCounter ++;\n    articles[articleCounter] = Article(\n      articleCounter,\n      msg.sender,\n      0x0000000000000000000000000000000000000000,\n      _name,\n      _description,\n      _price\n    );\n    \n\n    emit LogSellArticle(articleCounter, msg.sender, _name, _price);\n  }\n\n  // // get an article\n  // function getArticle() public view returns (\n  //   address _seller,\n  //   address _buyer,\n  //   string memory _name,\n  //   string memory _description,\n  //   uint256 _price\n  // ) {\n  //     return(seller, buyer, name, description, price);\n  // }\n\n  function getNumberOfArticles() public view returns(uint _id){\n    return articleCounter;\n  }\n\n  function getArticlesForSale() public view returns(uint[] memory){\n    uint[] memory articleIds = new uint[](articleCounter);\n    uint noOfArticlesForSale = 0;\n\n    uint i = 1;\n    while(i<=articleCounter){\n      if(articles[i].buyer == 0x0000000000000000000000000000000000000000){\n        articleIds[noOfArticlesForSale] = articles[i].id;\n        noOfArticlesForSale++;\n      }\n      i++;\n    }\n\n    uint[] memory forSaleArray = new uint[](noOfArticlesForSale);\n\n    for(uint j=0; j<noOfArticlesForSale; j++){      \n         forSaleArray[j] = articleIds[j];\n    }\n\n    return forSaleArray;\n  }\n\n  function buyArticle(uint _id) payable public {\n    //check whether article is on sale\n    require(articleCounter > 0 );\n    //check if article exist\n    require(_id>0 && _id<=articleCounter);\n    //retrieve article from mapping\n    Article storage article = articles[_id];\n    //check article has not been sold yetuuuuuuuuuuuuuuuuuuuuuuu\n    require(article.buyer == 0x0000000000000000000000000000000000000000);\n    require(msg.sender != article.seller);\n    require(msg.value == article.price );\n\n    article.buyer = msg.sender;\n\n    seller.transfer(msg.value);\n    //trigger the event\n    emit LogBuyArticle(_id,article.seller,article.buyer,article.name,article.price);\n  }\n}\n",
  "sourcePath": "C:/Users/manraju/desktop/angular/blockchain/chainskills/ChainSkillsmain2/chainlist/contracts/ChainList.sol",
  "compiler": {
    "name": "solc",
    "version": "0.5.0+commit.1d4f565a.Emscripten.clang"
  },
  "schemaVersion": "3.0.0",
  "updatedAt": "2018-12-23T22:30:51.095Z",
  "devdoc": {
    "methods": {}
  },
  "userdoc": {
    "methods": {}
  }
}